:020000040800F2
:1000000000000220A539000845110008471100082A
:10001000491100084B1100084D11000800000000B4
:100020000000000000000000000000004F11000868
:10003000511100080000000053110008551100087C
:10004000F5390008F5390008F5390008F5390008D8
:10005000F5390008F5390008F5390008F5390008C8
:10006000F5390008F5390008F5390008F5390008B8
:10007000F5390008F5390008F5390008F5390008A8
:10008000F5390008F5390008F5390008F539000898
:10009000F5390008F5390008F5390008F539000888
:1000A000F5390008F5390008F5390008F539000878
:1000B000F5390008F5390008F5390008F539000868
:1000C000F5390008F5390008F5390008F539000858
:1000D000F5390008F53900085D1100086D110008B8
:1000E000F5390008F5390008F5390008F539000838
:1000F000F5390008F5390008F5390008F539000828
:10010000F5390008F5390008F5390008F539000817
:10011000F5390008F53900087D1100088D11000837
:10012000F5390008F5390008F5390008F5390008F7
:10013000F5390008F5390008F5390008F5390008E7
:10014000F5390008F5390008F5390008F5390008D7
:10015000F5390008F5390008F5390008F5390008C7
:10016000F5390008F5390008F5390008F5390008B7
:10017000F5390008F5390008F539000800000000DD
:08018000F5390008F53900080B
:10018800034613F8012B002AFBD1181A01387047CF
:1001980081F0004102E000BF83F0004330B54FEA30
:1001A80041044FEA430594EA050F08BF90EA020F9D
:1001B8001FBF54EA000C55EA020C7FEA645C7FEA30
:1001C800655C00F0E2804FEA5454D4EB5555B8BF53
:1001D8006D420CDD2C4480EA020281EA030382EAC4
:1001E800000083EA010180EA020281EA0303362D56
:1001F80088BF30BD11F0004F4FEA01314FF4801C29
:100208004CEA113102D0404261EB410113F0004F3A
:100218004FEA03334CEA133302D0524263EB4303F1
:1002280094EA050F00F0A780A4F10104D5F1200E8F
:100238000DDB02FA0EFC22FA05F2801841F10001EA
:1002480003FA0EF2801843FA05F359410EE0A5F1BE
:1002580020050EF1200E012A03FA0EFC28BF4CF0EF
:10026800020C43FA05F3C01851EBE37101F00045A5
:1002780007D54FF0000EDCF1000C7EEB00006EEBB2
:100288000101B1F5801F1BD3B1F5001F0CD349083C
:100298005FEA30004FEA3C0C04F101044FEA445293
:1002A80012F5800F80F09A80BCF1004F08BF5FEA1A
:1002B800500C50F1000041EB045141EA050130BDFA
:1002C8005FEA4C0C404141EB0101013C28BFB1F50C
:1002D800801FE9D291F0000F04BF01460020B1FA57
:1002E80081F308BF2033A3F10B03B3F120020CDA2A
:1002F8000C3208DD02F1140CC2F10C0201FA0CF008
:1003080021FA02F10CE002F11402D8BFC2F1200C6C
:1003180001FA02F120FA0CFCDCBF41EA0C01904022
:10032800E41AA2BF01EB0451294330BD6FEA04046B
:100338001F3C1CDA0C340EDC04F11404C4F1200256
:1003480020FA04F001FA02F340EA030021FA04F368
:1003580045EA030130BDC4F10C04C4F1200220FABF
:1003680002F001FA04F340EA0300294630BD21FAFD
:1003780004F0294630BD94F0000F83F4801306BFC3
:1003880081F480110134013D4EE77FEA645C18BFB7
:100398007FEA655C29D094EA050F08BF90EA020F4E
:1003A80005D054EA000C04BF1946104630BD91EA46
:1003B800030F1EBF0021002030BD5FEA545C05D149
:1003C8004000494128BF41F0004130BD14F5800488
:1003D8003CBF01F5801130BD01F0004545F0FE41FC
:1003E80041F470014FF0000030BD7FEA645C1ABF31
:1003F800194610467FEA655C1CBF0B46024650EA68
:10040800013406BF52EA033591EA030F41F4002193
:1004180030BD00BF90F0000F04BF0021704730B519
:100428004FF4806404F132044FF000054FF00001EE
:1004380050E700BF90F0000F04BF0021704730B5AF
:100448004FF4806404F1320410F0004548BF404284
:100458004FF000013EE700BF42004FEAE2014FEAD9
:1004680031014FEA02701FBF12F07F4393F07F4FB4
:1004780081F06051704732F07F4208BF704793F0B7
:100488007F4F04BF41F40021704730B54FF46074CA
:1004980001F0004521F000411CE700BF50EA0102CD
:1004A80008BF704730B54FF000050AE050EA010276
:1004B80008BF704730B511F0004502D5404261EBE6
:1004C80041014FF4806404F132045FEA915C3FF427
:1004D800D8AE4FF003025FEADC0C18BF03325FEAC4
:1004E800DC0C18BF033202EBDC02C2F1200300FA75
:1004F80003FC20FA02F001FA03FE40EA0E0021FA9A
:1005080002F11444BDE600BF70B54FF0FF0C4CF487
:10051800E06C1CEA11541DBF1CEA135594EA0C0F39
:1005280095EA0C0F00F0DEF82C4481EA030621EA74
:100538004C5123EA4C5350EA013518BF52EA0335AF
:1005480041F4801143F4801338D0A0FB02CE4FF061
:100558000005E1FB02E506F00042E0FB03E54FF091
:100568000006E1FB03569CF0000F18BF4EF0010E89
:10057800A4F1FF04B6F5007F64F5407404D25FEA85
:100588004E0E6D4146EB060642EAC62141EA555138
:100598004FEAC52040EA5E504FEACE2EB4F1FD0C7A
:1005A80088BFBCF5E06F1ED8BEF1004F08BF5FEAF8
:1005B800500E50F1000041EB045170BD06F00046AA
:1005C80046EA010140EA020081EA0301B4EB5C0457
:1005D800C2BFD4EB0C0541EA045170BD41F480114F
:1005E8004FF0000E013C00F3AB8014F1360FDEBF74
:1005F800002001F0004170BDC4F10004203C35DA50
:100608000C341BDC04F11404C4F1200500FA05F3D2
:1006180020FA04F001FA05F240EA020001F0004273
:1006280021F0004110EBD37021FA04F642EB0601E9
:100638005EEA430E08BF20EAD37070BDC4F10C0413
:10064800C4F1200500FA04F320FA05F001FA04F2D7
:1006580040EA020001F0004110EBD37041F10001C3
:100668005EEA430E08BF20EAD37070BDC4F12005CE
:1006780000FA05F24EEA020E20FA04F301FA05F236
:1006880043EA020321FA04F001F0004121FA04F2DE
:1006980020EA020000EBD3705EEA430E08BF20EAAE
:1006A800D37070BD94F0000F0FD101F000464000E8
:1006B80041EB010111F4801F08BF013CF7D041EA6A
:1006C800060195F0000F18BF704703F0004652006E
:1006D80043EB030313F4801F08BF013DF7D043EA3F
:1006E8000603704794EA0C0F0CEA135518BF95EAF5
:1006F8000C0F0CD050EA410618BF52EA4306D1D17C
:1007080081EA030101F000414FF0000070BD50EA9A
:10071800410606BF1046194652EA430619D094EA24
:100728000C0F02D150EA013613D195EA0C0F05D10E
:1007380052EA03361CBF104619460AD181EA030162
:1007480001F0004141F0FE4141F470014FF000001A
:1007580070BD41F0FE4141F4780170BD70B54FF0B5
:10076800FF0C4CF4E06C1CEA11541DBF1CEA135535
:1007780094EA0C0F95EA0C0F00F0A7F8A4EB050417
:1007880081EA030E52EA03354FEA013100F088800E
:100798004FEA03334FF0805545EA131343EA1263D7
:1007A8004FEA022245EA111545EA10654FEA00268C
:1007B8000EF000419D4208BF964244F1FD0404F545
:1007C800407402D25B084FEA3202B61A65EB0305A1
:1007D8005B084FEA32024FF480104FF4002CB6EB5E
:1007E800020E75EB030E22BFB61A754640EA0C00DE
:1007F8005B084FEA3202B6EB020E75EB030E22BF1E
:10080800B61A754640EA5C005B084FEA3202B6EB5E
:10081800020E75EB030E22BFB61A754640EA9C001D
:100828005B084FEA3202B6EB020E75EB030E22BFED
:10083800B61A754640EADC0055EA060E18D04FEAAB
:10084800051545EA16754FEA06164FEAC30343EA4B
:1008580052734FEAC2025FEA1C1CC0D111F4801F18
:100868000BD141EA00014FF000004FF0004CB6E711
:1008780011F4801F04BF01430020B4F1FD0C88BFB0
:10088800BCF5E06F3FF6AFAEB5EB030C04BFB6EBBB
:10089800020C5FEA500C50F1000041EB045170BDAE
:1008A8000EF0004E4EEA113114EB5C04C2BFD4EBDB
:1008B8000C0541EA045170BD41F480114FF0000E5F
:1008C800013C90E645EA060E8DE60CEA135594EADB
:1008D8000C0F08BF95EA0C0F3FF43BAF94EA0C0FDE
:1008E8000AD150EA01347FF434AF95EA0C0F7FF453
:1008F80025AF104619462CE795EA0C0F06D152EAA7
:1009080003353FF4FDAE1046194622E750EA41068A
:1009180018BF52EA43067FF4C5AE50EA41047FF49B
:100928000DAF52EA43057FF4EBAE12E74FF0FF3C00
:1009380006E000BF4FF0010C02E000BF4FF0010CD1
:100948004DF804CD4FEA410C7FEA6C5C4FEA430C4A
:1009580018BF7FEA6C5C1BD001B050EA410C0CBF99
:1009680052EA430C91EA030F02BF90EA020F0020FB
:10097800704710F1000F91EA030F58BF994208BF62
:1009880090422CBFD8176FEAE37040F0010070471F
:100998004FEA410C7FEA6C5C02D150EA013C07D176
:1009A8004FEA430C7FEA6C5CD6D152EA033CD3D0C1
:1009B8005DF8040B704700BF8446104662468C46BB
:1009C8001946634600E000BF01B5FFF7B7FF0028EE
:1009D80048BF10F1000F01BD4DF808EDFFF7F4FF17
:1009E8000CBF012000205DF808FB00BF4DF808EDA2
:1009F800FFF7EAFF34BF012000205DF808FB00BFC5
:100A08004DF808EDFFF7E0FF94BF012000205DF8E6
:100A180008FB00BF4DF808EDFFF7CEFF94BF01209B
:100A280000205DF808FB00BF4DF808EDFFF7C4FF94
:100A380034BF012000205DF808FB00BF4FEA4102E7
:100A480012F5001215D211D56FF47873B3EB625218
:100A580012D94FEAC12343F0004343EA505311F03F
:100A6800004F23FA02F018BF404270474FF00000D1
:100A7800704750EA013005D111F0004008BF6FF00F
:100A8800004070474FF00000704700BF4A0011D285
:100A980012F5001211D20DD56FF47873B3EB6252D0
:100AA8000ED44FEAC12343F0004343EA505323FADC
:100AB80002F070474FF00000704750EA013002D151
:100AC8004FF0FF3070474FF0000070474FEA410287
:100AD800B2F1E04324BFB3F5001CDCF1FE5C0DD994
:100AE80001F0004C4FEAC0024CEA5070B2F1004FDE
:100AF80040EB830008BF20F00100704711F0804FE1
:100B080021D113F13872BCBF01F00040704741F4A5
:100B180080114FEA5252C2F11802C2F1200C10FAA9
:100B28000CF320FA02F018BF40F001004FEAC1238D
:100B38004FEAD32303FA0CFC40EA0C0023FA02F331
:100B48004FEA4303CCE77FEA625307D150EA013307
:100B58001EBF4FF0FE4040F44000704701F00040D7
:100B680040F0FE4040F40000704700BF53B94AB956
:100B7800002908BF00281CBF4FF0FF314FF0FF309D
:100B880000F00CB8ADF1080C6DE904CE02F0ECFFF2
:100B9800DDF804E0DDE9022304B07047704700BFC8
:100BA8000348044B834202D0034B03B118477047F4
:100BB8001000002010000020000000000548064B2F
:100BC8001B1AD90F01EBA301491002D0034B03B143
:100BD8001847704710000020100000200000000097
:100BE80010B5064C237843B9FFF7DAFF044B13B16D
:100BF8000448AFF300800123237010BD10000020CB
:100C080000000000683E000808B5054B1BB1054907
:100C18000548AFF30080BDE80840FFF7CFBF00BF2D
:100C28000000000014000020683E000884B0002284
:100C38000192104B196B41F080011963196B01F097
:100C48008001019101990292196B41F00101196328
:100C5800196B01F001010291029903921A6B42F09B
:100C680002021A631B6B03F002030393039B04B095
:100C7800704700BF0038024038B505460C460846A4
:100C8800FFF77EFA82B22146284601F097FB38BD6D
:100C980010B50446B5EEC00AF1EE10FA15DDDFED29
:100CA800127A20EE270ADFED117A30EE270ABDEE20
:100CB800C00A10EE103A1AB20D49204602F058FE4A
:100CC80021460C48FFF7D8FF10BDDFED0B7A20EE68
:100CD800270ADFED0A7A30EE670ABDEEC00A10EE89
:100CE800103A1AB2E8E700BFFE97A6420966D64056
:100CF800803E0008BC0000201F74A8425291AE41FB
:100D080038B52DED028B0378562B3FD1441C437820
:100D18002D2B07D0F7EE008A00259FED217A9FED55
:100D2800218A0CE0841CFFEE008AF5E7F2EE046AE3
:100D380028EE268A38EE278A00E001250134237838
:100D4800FBB12E2BF9D0A3F13002D2B2092AF5D883
:100D5800303B07EE903AF8EEE77A002DE6D067EEE2
:100D6800277A38EE278A17EE100AFFF775FB0AA3D1
:100D7800D3E90023FFF7C8FBFFF7A8FE07EE100A28
:100D8800DCE728EE280ABDEC028B38BD9FED050A8A
:100D9800F9E700BFAFF300809A9999999999B93FFB
:100DA800CDCCCC3D0000000038B50268154B9A4206
:100DB80000D038BD144B1B78144AD25C0A2A11D0D3
:100DC8000133DBB2104A1370092B02D913460022F3
:100DD8001A700D4B1B7801220C4919440C4801F07C
:100DE800EEFCE6E7094D0024EC542846FFF788FF9F
:100DF800084B83ED000A2C606C602C81024B1C7040
:100E0800E7E700BF00480040300000203400002021
:100E1800740000202C00002070B52DED028B82B0EC
:100E280003682A4A934206D0294A934236D002B030
:100E3800BDEC028B70BD274C23680133236007EE9D
:100E4800903AB8EEE70A244DD5ED007A20EE270A4D
:100E580002F0FAFD9FED218A20EE080A204B83ED6F
:100E6800000A94ED000AB8EEC00AD5ED007A20EE2B
:100E7800270A02F02FFE20EE080A1A4B83ED000A1B
:100E8800194B1B78002BD2D0184B93ED000A184849
:100E9800FFF7FEFE144B00221A70C8E7104B1868C3
:100EA800FFF7DAFA04460D46124E0E4B1868FFF7A4
:100EB800D3FACDE9000122462B460F49304602F00D
:100EC80057FD31460D48FFF7D7FEB0E70010004048
:100ED8000014004068000020000000200000484284
:100EE800700000206C0000203F0000202C00002033
:100EF800400000204C0000208C3E000874000020B8
:100F08000368074A934203D0064A934204D07047C5
:100F1800054B01221A707047044B01221A70F6E73C
:100F280000440040004800403F0000203E000020F0
:100F380072B6FEE700B583B00023009301930E4814
:100F48000E4A026040F247324260836040F2E73264
:100F5800C260836101F0A8F850B90023009301939F
:100F68006946054801F0CCF820B903B05DF804FBE8
:100F7800FFF7DEFFFFF7DCFF4C0100200010004008
:100F880008B50948094B0360094B43600023836097
:100F9800C36003610C2242618361C36101F0DEF921
:100FA80000B908BDFFF7C4FF7400002000480040E6
:100FB80000CA080000B583B00023009301930E48CF
:100FC8000E4A026053224260836040F2E732C260F8
:100FD800836101F069F850B90023009301936946D1
:100FE800054801F08DF820B903B05DF804FBFFF760
:100FF8009FFFFFF79DFF00BF040100200014004081
:1010080008B50A480A4B03604FF4E13343600023F4
:101018008360C36003610C2242618361C36101F094
:101028009DF900B908BDFFF783FF00BFBC00002091
:101038000044004010B594B008AC3022002120468E
:1010480002F0D5FC002303930493059306930793BA
:1010580001931F4A116C41F080511164126C02F027
:1010680080520192019A02931A4A116841F4804110
:101078001160126802F480420292029A02220892D7
:1010880001210B9110210C910E920F9308231093BC
:10109800A8231193129204231393204600F042F9D7
:1010A80090B90F23039302230493002305934FF46D
:1010B800A05306934FF480530793052103A800F02B
:1010C8009BFB18B914B010BDFFF732FFFFF730FFD4
:1010D800003802400070004008B500F057FEFFF7E6
:1010E800A9FFFFF7A3FDFFF725FFFFF749FFFFF76C
:1010F80061FFFFF785FF0A4800F074FE094800F019
:1011080071FE094B1B78012208491944084801F06F
:1011180056FB084B93ED000A0748FFF7B9FDFEE7B9
:101128004C01002004010020300000203400002081
:10113800740000202C00002040000020FEE7FEE79D
:10114800FEE7FEE7FEE770477047704708B500F016
:1011580037FE08BD08B5024801F0D4F908BD00BF44
:10116800BC00002008B5024801F0CCF908BD00BF5A
:101178007400002008B5024800F07AFE08BD00BFE0
:101188004C01002008B5024800F072FE08BD00BFFF
:101198000401002082B0002100910B4B5A6C42F4EC
:1011A80080425A645A6C02F480420092009A01917B
:1011B8001A6C42F080521A641B6C03F0805301933E
:1011C800019B02B0704700BF0038024000B583B0F1
:1011D8000368184A934205D0174A934216D003B0C1
:1011E8005DF804FB00220092144B196C41F01001C9
:1011F80019641B6C03F010030093009B0721362031
:1012080000F076FD362000F083FDE8E70022019229
:101218000A4B196C41F0200119641B6C03F0200380
:101228000193019B0621372000F062FD372000F072
:101238006FFDD4E700100040001400400038024061
:1012480010B58AB000230593069307930893099372
:1012580003682F4A934204D02E4A93422CD00AB0F6
:1012680010BD002401942C4B1A6C42F400321A640D
:101278001A6C02F400320192019A02941A6B42F03D
:1012880001021A631B6B03F001030293029B0C23F8
:10129800059302230693032308930723099305A9BB
:1012A8001E4800F07FFB22462146262000F020FD44
:1012B800262000F02DFDD2E700240394164B1A6C6B
:1012C80042F480221A641A6C02F480220392039A70
:1012D80004941A6B42F002021A631B6B03F00203B8
:1012E8000493049B4FF4406305930223069303235E
:1012F80008930723099305A9094800F053FB2246E0
:101308000821272000F0F4FC272000F001FDA6E7C3
:1013180000440040004800400038024000000240FD
:1013280000040240002800F0E08170B582B0044655
:10133800036813F0010F3BD09F4B9B6803F00C032D
:10134800042B2CD09C4B9B6803F00C03082B21D05A
:101358006368B3F5803F4FD0B3F5A02F52D0964BBA
:101368001A6822F480321A601A6822F480221A60FD
:101378006368002B50D000F02FFD05468E4B1B688C
:1013880013F4003F14D100F027FD401B6428F5D961
:101398000320B1E1884B5B6813F4800FD8D0864BEB
:1013A8001B6813F4003F03D06368002B00F09F8193
:1013B800236813F0020F54D07F4B9B6813F00C0F77
:1013C8003ED07D4B9B6803F00C03082B33D0E368B9
:1013D800002B68D0794B01221A6000F0FDFC05460D
:1013E800754B1B6813F0020F54D100F0F5FC401B3D
:1013F8000228F5D903207FE16F4A136843F480334C
:101408001360B5E76C4B1A6842F480221A601A68B8
:1014180042F480321A60ABE700F0DEFC0546664B0A
:101428001B6813F4003FC3D000F0D6FC401B6428AF
:10143800F5D9032060E1604B5B6813F4800FC6D1D7
:101448005D4B1B6813F0020F03D0E368012B40F0DB
:101458005081594A136823F0F803216943EAC1030C
:101468001360236813F0080F42D063696BB3534BC2
:101478000122C3F8802E00F0AFFC05464E4B5B6F8F
:1014880013F0020F34D100F0A7FC401B0228F5D955
:10149800032031E1484A136823F0F803216943EA3D
:1014A800C1031360DDE7454B00221A6000F094FC8D
:1014B8000546414B1B6813F0020FD2D000F08CFC9C
:1014C800401B0228F5D9032016E13C4B0022C3F843
:1014D800802E00F081FC0546374B5B6F13F0020F3E
:1014E80006D000F079FC401B0228F5D9032003E15F
:1014F800236813F0040F77D02F4B1B6C13F0805F19
:1015080033D1002301932C4B1A6C42F080521A6499
:101518001B6C03F080530193019B0125284B1B682A
:1015280013F4807F23D0A368012B34D0052B38D047
:10153800214B1A6F22F001021A671A6F22F0040277
:101548001A67A368002B3DD000F046FC06461A4BEC
:101558001B6F13F0020F46D100F03EFC801B41F2D6
:1015680088339842F3D90320C6E00025D6E7144A09
:10157800136843F48073136000F02EFC0646104B8A
:101588001B6813F4807FCED100F026FC801B022854
:10159800F5D90320B0E0084A136F43F0010313673D
:1015A800CFE7054B1A6F42F004021A671A6F42F030
:1015B80001021A67C5E700BF003802400000474231
:1015C8000070004000F008FC0646524B1B6F13F0F9
:1015D800020F08D000F000FC801B41F288339842CB
:1015E800F3D9032088E0EDB9A369002B00F08380CC
:1015F800484A926802F00C02082A51D0022B17D0F0
:10160800454B00221A6600F0E7FB0446414B1B6875
:1016180013F0007F42D000F0DFFB001B0228F5D951
:10162800032069E03B4A136C23F080531364DBE723
:10163800394B00221A6600F0CFFB0546354B1B6874
:1016480013F0007F06D000F0C7FB401B0228F5D935
:10165800032051E0E369226A1343626A43EA821372
:10166800A26A5208013A43EA0243E26A43EA026381
:10167800284A5360284B01221A6600F0ADFB044645
:10168800244B1B6813F0007F06D100F0A5FB001B5C
:101698000228F5D903202FE000202DE000202BE0C0
:1016A800012B2BD01B4B5B6803F48001E26991424C
:1016B80026D103F03F02216A8A4223D1616A47F6A4
:1016C800C0721A40B2EB811F1ED103F44031A26AE6
:1016D8005208013AB1EB024F18D103F07063E26A85
:1016E800B3EB026F14D1002006E0012070470120FF
:1016F80002E0012000E0002002B070BD0120FBE7FD
:101708000120F9E70120F7E70120F5E70120F3E7D9
:101718000120F1E7003802400000474208B5334B8A
:101728009B6803F00C03042B5BD0082B5BD12F4B79
:101738005A6802F03F025B6813F4800F2CD02B4BE1
:101748005868C0F388104FEA401CBCEB000C6EEBE5
:101758000E0E4FEA8E1343EA9C634FEA8C11B1EBED
:101768000C0163EB0E03DB0043EA5173C90011EB74
:10177800000C43F10003590200234FEA4C2041EAD0
:10178800DC51FFF7F3F9194B5B68C3F301430133ED
:101798005B00B0FBF3F008BD144B5868C0F3881029
:1017A8004FEA401CBCEB000C6EEB0E0E4FEA8E139A
:1017B80043EA9C634FEA8C11B1EB0C0163EB0E0317
:1017C800DB0043EA5173C90011EB000C43F100033D
:1017D800990200234FEA8C2041EA9C51FFF7C6F991
:1017E800D1E70348D7E70348D5E700BF00380240F0
:1017F80000127A000024F400002800F09B8070B5E5
:101808000D4604464F4B1B6803F007038B4208D272
:10181800CBB24C4A1370136803F007038B4240F0B5
:101828008B80236813F0020F17D013F0040F04D035
:10183800454A936843F4E0539360236813F0080F14
:1018480004D0414A936843F4604393603E4A9368E6
:1018580023F0F003A1680B439360236813F0010F92
:1018680032D06368012B21D09A1E012A25D9364A25
:10187800126812F0020F61D033498A6822F003021D
:1018880013438B6000F0A8FA06462F4B9B6803F0C1
:101898000C036268B3EB820F16D000F09DFA801B30
:1018A80041F288339842F0D9032042E0264A126870
:1018B80012F4003FE0D101203BE0234A126812F005
:1018C800007FD9D1012034E01E4B1B6803F00703C9
:1018D800AB4207D9EAB21B4B1A701B6803F0070327
:1018E800AB422DD1236813F0040F06D0164A936833
:1018F80023F4E053E1680B439360236813F0080F67
:1019080007D0114A936823F46043216943EAC1036D
:101918009360FFF703FF0C4B9B68C3F303130B4A59
:10192800D35CD8400A4B18600A4B186800F008FAD4
:10193800002070BD012070470120FAE70120F8E778
:101948000120F6E7003C024000380240BC3E000897
:101958000C00002008000020014B1868704700BFE9
:101968000C00002008B5FFF7F7FF044B9B68C3F392
:101978008223034AD35CD84008BD00BF0038024028
:10198800B43E000808B5FFF7E7FF044B9B68C3F3B4
:101998004233034AD35CD84008BD00BF0038024038
:1019A800B43E000800230F2B00F2E98070B582B026
:1019B80065E085684FEA430E032404FA0EF425EA2D
:1019C8000405CC6804FA0EF42C438460446824EAC5
:1019D80002044A68C2F300129A40224342605CE063
:1019E800DC08083450F8242003F00705AD004FF058
:1019F8000F0E0EFA05FE22EA0E0E0A69AA4042EA06
:101A08000E0240F824205CE0072200E0002202FADF
:101A18000EF22A4302345A4D45F82420594A946854
:101A28006FEA0C0224EA0C054E6816F4801F01D0F8
:101A38004CEA0405534CA560E46802EA04054E68C4
:101A480016F4001F01D04CEA04054E4CE5606468AA
:101A580002EA04054E6816F4003F01D04CEA04057A
:101A6800484C6560246822404D6815F4803F01D0D9
:101A78004CEA0402434C226001330F2B7DD801222B
:101A88009A400C6804EA020C32EA0404F4D14C6867
:101A980004F00304013C012C8BD94A6802F00302CC
:101AA800032A09D0C4685D000322AA4024EA02047C
:101AB8008A68AA402243C2604A6802F00302022AE6
:101AC8008ED004684FEA430E032202FA0EF224EA8B
:101AD80002044A6802F0030202FA0EF2224302608C
:101AE8004A6812F4403FC7D000220192264A546C3B
:101AF80044F480445464526C02F480420192019A86
:101B08009C08A51C1E4A52F8255003F0030E4FEA04
:101B18008E0E0F2202FA0EF225EA02051B4A9042A7
:101B28003FF474AF02F5806290421AD002F58062E9
:101B3800904218D002F58062904216D002F5806279
:101B4800904214D002F58062904212D002F5806271
:101B5800904210D002F5806290423FF455AF0822BF
:101B680055E7012253E7022251E703224FE70422F7
:101B78004DE705224BE7062249E702B070BD7047E2
:101B880000380140003C014000380240000002409B
:101B980070B50446866D00F01FF994F83530022BB5
:101BA80006D080236365002384F83430012070BD9B
:101BB80005462268136823F01603136022685369E8
:101BC80023F080035361236CE3B12268136823F088
:101BD800080313602268136823F001031360236865
:101BE8001B6813F0010F11D000F0F6F8431B052B0A
:101BF800F5D920236365032084F83500002384F891
:101C08003430D4E7A36C002BDFD1E3E7E26D3F2348
:101C18009340B360012384F83530002084F8340001
:101C2800C5E790F83530022B03D0802343650120A7
:101C38007047052380F835300268136823F00103E4
:101C48001360002070470000002807DB00F01F0227
:101C5800400901239340024A42F82030704700BFF0
:101C680000E100E0002808DB0901C9B200F160408A
:101C780000F5614080F80013704700F00F0009017B
:101C8800C9B2014B1954704714ED00E000B500F0DB
:101C98000700C0F1070CBCF1040F28BF4FF0040C7B
:101CA800031D062B0FD9C31E4FF0FF3E0EFA0CF092
:101CB80021EA000199400EFA03FE22EA0E0241EAE7
:101CC80002005DF804FB0023EEE70000074AD36832
:101CD80023F4E0631B041B0C000200F4E0600343E0
:101CE80043F0BF6343F40033D360704700ED00E076
:101CF80010B50446054BD868C0F30220FFF7C6FFAD
:101D080001462046FFF7AEFF10BD00BF00ED00E022
:101D180008B5FFF799FF08BD0138B0F1807F0BD2F5
:101D28004FF0E0235861054AF02182F82310002083
:101D3800986107221A6170470120704700ED00E0A2
:101D480010B504460E4B1A784FF47A73B3FBF2F3CE
:101D58000C4A1068B0FBF3F0FFF7DEFF68B90F2CF0
:101D680001D901200AE0002221464FF0FF30FFF799
:101D7800BFFF054B1C60002000E0012010BD00BF24
:101D8800040000200C0000200800002008B50B4BC0
:101D98001A6842F400721A601A6842F480621A6083
:101DA8001A6842F480721A600320FFF78FFF0F2031
:101DB800FFF7C6FFFFF7EEF9002008BD003C024020
:101DC800034A1168034B1B780B441360704700BF2C
:101DD8009401002004000020014B1868704700BFE0
:101DE8009401002090F83D30012B37D1022380F870
:101DF8003D300268D36843F00103D3600368194A91
:101E0800934220D0B3F1804F1DD0A2F57C4293427B
:101E180019D002F58062934215D002F58062934290
:101E280011D002F5784293420DD002F570529342D8
:101E380009D0A2F59432934205D01A6842F0010203
:101E48001A60002070479A6802F00702062A07D035
:101E58001A6842F001021A6000207047012070479A
:101E68000020704700000140704770477047704776
:101E780070B504460368DE681D6915F0020F10D0BE
:101E880016F0020F0DD06FF002021A6101230377DA
:101E980003689B6913F0030F5ED0FFF7E6FF00238A
:101EA800237715F0040F12D016F0040F0FD0236813
:101EB8006FF004021A610223237723689B6913F4E5
:101EC800407F4FD02046FFF7D0FF0023237715F03F
:101ED800080F12D016F0080F0FD023686FF0080211
:101EE8001A61042323772368DB6913F0030F40D0BA
:101EF8002046FFF7BAFF0023237715F0100F12D002
:101F080016F0100F0FD023686FF010021A61082323
:101F180023772368DB6913F4407F31D02046FFF72D
:101F2800A4FF0023237715F0010F02D016F0010F4C
:101F38002DD115F0800F02D016F0800F2FD115F09B
:101F4800400F02D016F0400F31D115F0200F02D00B
:101F580016F0200F33D170BDFFF786FF2046FFF73C
:101F680085FF9CE72046FFF77FFF2046FFF77EFFAF
:101F7800ABE72046FFF778FF2046FFF777FFBAE781
:101F88002046FFF771FF2046FFF770FFC9E7236877
:101F98006FF001021A612046FEF73EFFC9E7236889
:101FA8006FF080021A61204600F0F1F8C7E7236855
:101FB8006FF040021A612046FFF759FFC5E7236812
:101FC8006FF020021A61204600F0E0F8C3E7000035
:101FD8000368344A904212D0B0F1804F0FD0A2F576
:101FE8007C4290420BD002F58062904207D002F505
:101FF8008062904203D002F57842904203D123F0E8
:1020080070034A681343274A90422AD0B0F1804FA0
:1020180027D0A2F57C42904223D002F580629042FC
:102028001FD002F5806290421BD002F578429042A0
:1020380017D002F57052904213D002F58062904298
:102048000FD002F5806290420BD0A2F598329042F0
:1020580007D002F58062904203D002F58062904278
:1020680003D123F44073CA68134323F080034A69F9
:10207800134303608B68C3620B688362094B984201
:1020880003D003F58063984201D10B6903630123F0
:102098004361036913F0010F03D0036923F00103BF
:1020A800036170470000014040B310B5044690F842
:1020B8003D30F3B1022384F83D30214651F8040B3A
:1020C800FFF786FF012384F8463084F83E3084F811
:1020D8003F3084F8403084F8413084F8423084F846
:1020E800433084F8443084F8453084F83D3000208B
:1020F80010BD80F83C30FFF769F8DBE70120704736
:1021080090F83C20012A3DD010B40346012280F803
:102118003C20022280F83D2002685068946820F034
:10212800700C086840EA0C0050601A681648824231
:102138001AD0B2F1804F17D0A0F57C40824213D05C
:1021480000F5806082420FD000F5806082420BD09B
:1021580000F57840824207D000F57050824203D0E3
:10216800A0F59430824204D124F0800449682143C8
:102178009160012283F83D20002083F83C005DF83F
:10218800044B7047022070470000014070477047B9
:10219800026802F10C0353E8003F23F490730C32F9
:1021A80042E800310029F3D1026802F1140353E830
:1021B800003F23F00103143242E800310029F3D133
:1021C800036B012B05D0202380F8423000230363E2
:1021D8007047026802F10C0353E8003F23F0100334
:1021E8000C3242E800310029F3D1ECE790F8413095
:1021F800212B01D0022070478368B3F5805F17D088
:10220800036A5A1C02621A7803685A60C38C9BB22C
:10221800013B9BB2C3844BB90268D36823F08003A7
:10222800D3600268D36843F04003D360002070474E
:102238000369002BE4D1036A1B880268C3F308030F
:102248005360036A02330362E0E7000010B50446F6
:102258000268136923F44053C1680B431361836810
:1022680002691A4343691A43C3691A430168CB6870
:1022780023F4164323F00C031343CB60026853691D
:1022880023F4407381690B4353610368314A9342D5
:1022980006D002F58062934202D0FFF763FB01E0AB
:1022A800FFF770FBE369B3F5004F29D0002103184D
:1022B80049411B1841F10001C90041EA5371DB0093
:1022C800181863684FEA83024FEA937341F10001DB
:1022D800FEF74CFC204AA2FB00314909642303FBAA
:1022E80011031B013233A2FB03235B0903F0F00245
:1022F80002EB011203F00F03216813448B6010BD39
:102308000023021843EB0301121841F10001C90030
:1023180041EA5271D200101841F100016268921826
:102328005B41FEF723FC0C4AA2FB003149096423F8
:1023380003FB1103DB003233A2FB03235B095A00C2
:1023480002F4F87202EB011203F007032168134448
:102358008B60D4E7001001401F85EB5160B310B5C6
:10236800044690F8413013B3242384F8413022689E
:10237800D36823F40053D3602046FFF767FF226831
:10238800136923F4904313612268536923F02A03E5
:1023980053612268D36843F40053D360002060641B
:1023A800202384F8413084F84230606310BD80F8FF
:1023B8004030FEF745FFD7E70120704790F84130DD
:1023C800202B10D189B192B101628284C28400238A
:1023D8004364212280F841200168CA6842F08002E3
:1023E800CA601846704702207047012070470120D4
:1023F800704708B50168CA6822F04002CA60202206
:1024080080F84120FEF77CFD002008BD704708B524
:10241800806B0023C385C384FFF7F8FF08BD7047AE
:1024280090F84230222B69D18368B3F5805F4FD092
:10243800826AB3F5805F04D0002B56D10369002B64
:1024480053D103685B681370836A01338362C38D59
:102458009BB2013B9BB2C385002B51D100B583B021
:102468000268D36823F02003D3600268D36823F49A
:102478008073D3600268536923F0010353612023FA
:1024880080F8423000234363036B012B33D10023D0
:102498000363026802F10C0353E8003F23F01003C2
:1024A8000C3242E800310029F3D103681A6812F0AF
:1024B800100F06D0002201921A6801925B680193FE
:1024C800019B818DFFF7ABFF002003B05DF804FB93
:1024D8000269002AACD1826A03685B68C3F3080307
:1024E8001380836A02338362B1E703685B6803F091
:1024F8007F031370A8E7FEF757FCE5E70220704753
:102508000020704710B582B0044602681368D0688E
:10251800516913F00F0F09D113F0200F0CD010F0F0
:10252800200F09D02046FFF77BFF16E011F00101CC
:1025380015D110F4907F12D1216B012979D013F0B5
:10254800800F03D010F0800F40F0148113F0400F7B
:1025580003D010F0400F40F0118102B010BD13F00D
:10256800010F06D010F4807F03D0626C42F00102A4
:10257800626413F0040F04D019B1626C42F00202D5
:10258800626413F0020F04D019B1626C42F00402C5
:10259800626413F0080F07D010F0200F00D119B1B2
:1025A800626C42F008026264626C002AD5D013F0B3
:1025B800200F02D010F0200F29D123685B6903F0A7
:1025C8004003626C12F0080F00D163B32046FFF796
:1025D800DFFD23685B6913F0400F20D0226802F109
:1025E800140353E8003F23F04003143242E800315B
:1025F8000029F3D1E36B73B1624A1A65E06BFFF708
:1026080010FB0028A9D0E06B036D9847A5E720468A
:10261800FFF706FFD1E72046FFF7F8FE9DE72046C3
:10262800FFF7F4FE99E72046FFF7F0FE0023636406
:1026380093E713F0100F82D010F0100F3FF47FAF24
:10264800002301931368019353680193019B536915
:1026580013F0400F52D0E26B13685B689BB2002BFB
:102668003FF47BAFA18D99427FF677AFE385D369BD
:10267800B3F5807F37D0226802F10C0353E8003F9E
:1026880023F480730C3242E800310029F3D1226828
:1026980002F1140353E8003F23F00103143242E827
:1026A80000310029F3D1226802F1140353E8003FF6
:1026B80023F04003143242E800310029F3D12023EB
:1026C80084F8423000232363226802F10C0353E8A4
:1026D800003F23F010030C3242E800310029F3D107
:1026E800E06BFFF755FA02236363A18DE38D9BB27C
:1026F800C91A89B22046FFF792FE2EE7A18DE38D15
:102708009BB2C91A89B2E38D9BB2002B3FF425AF67
:1027180000293FF422AF226802F10C0353E8003F7E
:1027280023F490730C3242E800300028F3D1226879
:1027380002F1140353E8003F23F00103143242E886
:1027480000300028F3D1202384F84230002323638B
:10275800226802F10C0353E8003F23F010030C3207
:1027680042E800300028F3D1022363632046FFF7D4
:1027780056FEF2E62046FFF739FDEEE62046FFF763
:1027880038FEEAE61724000881628285C2850023A4
:102798004364222380F84230036923B10268D36876
:1027A80043F48073D3600268536943F001035361B3
:1027B8000268D36843F02003D3600020704708B54F
:1027C80090F84230202B08D149B10AB9012008BD40
:1027D80000230363FFF7D8FFF9E70220F7E701209A
:1027E800F5E70000034AD2F8883043F47003C2F8D2
:1027F8008830704700ED00E09A4200D28854704754
:1028080070470146002008E000EB8000531C0B6075
:10281800137803EB4003A3F130000A681378303BC8
:10282800DBB2092BF0D970472DE9F04F83B005468C
:102838000E4693461F46DDF830A00D9CDDF8389013
:102848000F9B13F0030F19D1A046019208E002F183
:10285800010B3B4631462020A84708F101085A469B
:10286800C845F4D3DDF804B008E0013C02F10108E2
:102878003B4631461AF80400A8474246002CF4D1DA
:102888000F9B13F0020F09D1104603B0BDE8F08F7B
:10289800541C3B4631462020A8472246A2EB0B0396
:1028A8004B45F5D3F0E72DE9F04385B099460C9DEB
:1028B8000D9C9DF83880DDF840E0119F129E16F0BF
:1028C800020F21D17FB116F0010F0CD0B8F1000F23
:1028D80002D116F00C0F06D0013F04E04FF0300C87
:1028E80005F804C00134744501D21F2CF6D916F03E
:1028F800010F09D0BC4207D21F2C05D84FF0300C6D
:1029080005F804C00134F2E716F0100F14D016F4DD
:10291800806F04D11CB1744522D0BC4220D00F9BDB
:10292800102B33D00F9B022B3DD01F2C0ED84FF00D
:10293800300C05F804C001341F2C07D8B8F1000F7B
:1029480039D04FF02D0C05F804C0013403960297D6
:10295800019400954B46FFF767FF05B0BDE8F0838B
:10296800B4F1010C1DD00F9B102B0ED064460F9BA9
:10297800102BD7D116F0200FD4D01F2CD2D84FF05F
:10298800580C05F804C00134CFE7023C16F0200FBC
:10299800EDD11F2CEBD84FF0780C05F804C00134AA
:1029A800C3E76446BBE71F2CD0D84FF0620C05F88C
:1029B80004C00134B9E716F0040F05D04FF02B0C12
:1029C80005F804C00134C1E716F0080FBED04FF077
:1029D800200C05F804C00134B8E7F0B591B0169C96
:1029E800189D1B9E0CB926F0100616F4806E1DD09B
:1029F80064B34FF0000E19E016F0200F24D04127E1
:102A0800BC445FFA8CFCACF10A0C5FFA8CFC0EF14A
:102A180001070EF1400EEE440EF820CCB4FBF5FC95
:102A2800AC4214D31F2F12D8BE466446B4FBF5FC43
:102A380005FB1C4C5FFA8CFCBCF1090FDCD80CF1CF
:102A4800300C5FFA8CFCE2E76127D9E72746069647
:102A58001A9C0594199C049403959DF85C40029473
:102A6800019708AC0094FFF71EFF11B0F0BD2DE9E7
:102A7800F04F95B009900A910B929846DDF878B01E
:102A8800DDF87C90229D239F269E5BEA090201D1F6
:102A980026F0100616F4806424D05BEA09022FD0D1
:102AA80000241FE016F0200F28D041231344DBB286
:102AB8000A3BDBB204F1010A04F150020DEB0204F7
:102AC80004F8203C2A463B4658464946FEF74EF84D
:102AD800AB4579EB070915D3BAF11F0F12D8544645
:102AE800834689462A463B4658464946FEF73EF8FD
:102AF800D2B2092AD6D83032D3B2DBE76123D5E780
:102B08004FF0000A0696259B0593249B0493039592
:102B18009DF880300293CDF804A00CAB0093434697
:102B28000B9A0A990998FFF7BEFE15B0BDE8F08F19
:102B38002DE9F04F2DED028B93B082460C4693465B
:102B48001D4657EC106B8DED080B32463B46304660
:102B58003946FDF741FF002800F00A814FF0FF32A7
:102B6800B14B30463946FDF75FFF002840F0008141
:102B78004FF0FF326FF4801330463946FDF736FFC9
:102B8800002840F0F58000220023DDE90867304680
:102B98003946FDF72BFF002840F0FD809DED087BAE
:102BA8008DED067B209B13F48063119301D10623DE
:102BB8001E93DDE906010246079BC3F30A50C3F3DF
:102BC8001303904643F07F5949F44019A0F2FF30AF
:102BD800FDF730FC82A3D3E90023FDF795FC82A31F
:102BE800D3E90023FDF7DAFA06460F4600228F4B99
:102BF80040464946FDF7D0FA7DA3D3E90023FDF707
:102C080083FC02460B4630463946FDF7C7FAFDF706
:102C180015FF0646FDF70EFC8046894676A3D3E9E4
:102C28000023FDF771FC0022814BFDF7B7FAFDF791
:102C380005FF074672A3D3E9002340464946FDF73E
:102C480063FC804689463846FDF7F4FB6EA3D3E95A
:102C58000023FDF759FC02460B4640464946FDF75E
:102C68009BFA8046894602460B46FDF74DFCCDE9A6
:102C78000C0107F2FF3700210022CDE90A123B05BB
:102C88000B9300230A9342464B4640464946FDF7BC
:102C980085FACDE90E0142464B4600204FF08041AF
:102CA800FDF77AFA804689460022624BDDE90C017D
:102CB800FDF754FD0022604BFDF770FA02460B4603
:102CC800DDE90C01FDF74AFD00225C4BFDF766FAD1
:102CD80002460B46DDE90C01FDF740FD02460B46B6
:102CE80040464946FDF75AFA02460B46DDE90E0111
:102CF800FDF734FD0022524BFDF750FADDE90A23B7
:102D0800FDF702FC8046894649EC188BDDE906236D
:102D1800FDF78AFE40B1013E0022474B4046494636
:102D2800FDF71CFD41EC180B06F16303C62B3BD8DD
:102D38000427209B13F4006F40D035A3D3E9002368
:102D4800DDE9068940464946FDF764FE00283BD088
:102D580031A3D3E9002340464946FDF747FE002842
:102D680032D01E9BB34221DD9E1B731E1E931FE0B3
:102D7800209B02931F9B01931E9B00939DED080BC4
:102D88002B465A462146504600F0CAF813B0BDEC0F
:102D9800028BBDE8F08F9FED227B8DED067B0696BA
:102DA80007F100430793FDE60527C2E700231E93BA
:102DB800209B43F48063209300273E461F9B9F423D
:102DC80040D2A3EB07083FE01E9B002BF6D0119BD7
:102DD800002BF3D01E9B013B1E93EFE7AFF300805F
:102DE800FB799F501344D33FB3C8608B288AC63FF2
:102DF80061436F63A787D23F71A379094F930A4054
:102E08001655B5BBB16B0240EF39FAFE422EE63FCC
:102E18002D431CEBE2361A3F0000000080842E414F
:102E28000000000000000000FFFFEF7F0000F83FF7
:102E38000000E03F00002C40000024400000184043
:102E48000000F03F4FF00008209B13F0020902D069
:102E58000FB14FF000083EB153EC182BDDE9060125
:102E6800FDF77CFCCDE9060100220023DDE908011D
:102E7800FDF7BCFD00283BD1209B23F4006302939F
:102E8800CDF804801E9B00939DED060B2B465A46F9
:102E98002146504600F044F8002F3FF477AF209BBE
:102EA80013F0200F2CD04FF0450C00F101082B46F1
:102EB800024621466046D04786EAE672A2EBE672F1
:102EC80005230593013F0497002303930A230293E4
:102ED800F30F019300922B46424621465046FFF7D6
:102EE8007CFDB9F1000F3FF451AF02461F9F10E07F
:102EF800DDE90601024601F10043CDE90623BBE7FF
:102F08004FF0650CD1E7561C2B4621462020D047B0
:102F18003246A2EB0B03BB42F5D3104636E700BF9F
:102F28002DE9F04F2DED028B93B005900891924654
:102F38009B4659EC108B1E9D42464B4640464946DF
:102F4800FDF74AFD002840D04FF0FF326FF48013A0
:102F580040464946FDF74AFD002845D14FF0FF326B
:102F6800AB4B40464946FDF75FFD00284BD1A4A373
:102F7800D3E9002340464946FDF756FD002858D1BD
:102F8800A1A3D3E9002340464946FDF72FFD0028B9
:102F98004FD10022002340464946FDF727FD00286F
:102FA80055D100230993209B13F4806F5AD0002435
:102FB8001F2C59D8092D57D904F148036B443022E6
:102FC80003F8202C013D0134F2E7209B03931F9B5B
:102FD8000293032301938F4B00935B465246089953
:102FE8000598FFF721FC05E1209B03931F9B0293A3
:102FF80004230193884B00935B4652460899059831
:10300800FFF712FCF6E0209B13F0040F0ED0834B61
:103018000422209903911F990291019200935B4623
:10302800524608990598FFF7FFFBE3E07C4B032223
:10303800EFE7209B02931F9B0193009549EC108BAF
:103048005B46524608990598FFF772FDD2E0424662
:103058004B4600200021FDF79FF880468946012352
:103068000993A0E70625A2E740464946FDF7E6FC96
:103078000646FDF7DFF902460B4640464946FDF78E
:103088008BF8684B03EBC50393ED008B53EC182BBF
:10309800FDF73AFA02460B46CDE90623FDF7F6FCA2
:1030A8000746FDF7B7F902460B46DDE90601FDF7CD
:1030B80073F802460B46CDE9062300225A4BFDF76A
:1030C800B3FC08B301373846FDF7A4F902460B46AE
:1030D80051EC180BFDF794FC08B1013600270DBB25
:1030E8003046FDF7A7F902460B4640464946FDF72C
:1030F80053F800224C4BFDF779FC002842D116F01A
:10310800010F3FD001363DE00022474BDDE90601C3
:10311800FDF76CFC0028E2D117B117F0010FDED0E3
:103128000137DCE71F2C17D8013D404BA3FB0723D1
:10313800DB08194603EB8303A7EB4303621C303318
:1031480004F148000DEB000404F8203C092F02D9D3
:103158000F461446E6E714461F2C0AD86B1E45B1E5
:1031680004F148026A44302102F8201C1D4601344B
:10317800F2E71F2C06D804F148036B442E2203F80B
:10318800202C01341F2C17D8294A82FB0632F3174A
:10319800C3EBA2031A4603EB8303A6EB4303611CAC
:1031A800303304F148000DEB000404F8203C1646C7
:1031B8000AB10C46E6E70C46209B03F00303012BFB
:1031C80038D01F2C09D8099B002B50D004F1480394
:1031D8006B442D2203F8202C0134209B03931F9B62
:1031E800029301940AAB00935B46524608990598EE
:1031F800FFF71AFB13B0BDEC028BBDE8F08F00BFE0
:103208000000000065CDCD410000000065CDCDC1B6
:10321800FFFFEF7FA83E0008AC3E00089C3E000878
:10322800A43E0008D03E00080000E03FCDCCCCCC46
:10323800676666661F9BB3B1099B1BB9209B13F099
:103248000C0F12D01F9B013B1F93194606E004F197
:1032580048036B44302203F8202C01348C42B0D24E
:103268001F2CF4D9ADE71F99F8E71F99F6E7209BC3
:1032780013F0040F07D004F148036B442B2203F822
:10328800202C0134A9E7209B13F0080FA5D004F1E6
:1032980048036B44202203F8202C01349DE700BF2B
:1032A8002DE9F04F8FB0804617460D9389460029C7
:1032B80000F04B83002508E06C1C3B462A46494633
:1032C800C0470D9B01330D9325460D9B18780028A8
:1032D80000F03E832528EFD101330D9300261FE02F
:1032E80046F0010601320D92012318E046F002066D
:1032F80001320D92012312E046F0040601320D92CC
:1033080001230CE046F0080601320D92012306E085
:1033180046F0100601320D92012300E000234BB362
:103328000D9A1378203B102BF8D801A151F823F0FF
:103338000D33000825330008253300081933000829
:1033480025330008253300082533000825330008F5
:103358002533000825330008253300080133000809
:1033680025330008F5320008253300082533000806
:10337800E93200080A930D9B1A78A2F13003DBB2F8
:10338800092B18D92A2A1BD00A9B0B930D9B1A7854
:103398002E2A25D00D9A1378683B122B5CD8DFE8CB
:1033A80003F0495BAC5B3B5B5B5B5B5B5B5B575B0D
:1033B8005B5B5B5BB1000DA8FFF723FA0B90E5E7B9
:1033C800189B1A1D18921B68002B04DB0B930D9B8E
:1033D80001330D93DAE746F002065B420B93F6E7FA
:1033E80046F480665A1C0D925A78A2F13003DBB27B
:1033F800092B0CD92A2ACDD1189B1A1D18921C68A2
:1034080024EAE4730A930D9B01330D93C2E70DA8D8
:10341800FFF7F7F90A90BDE746F48071531C0D9346
:1034280053786C2B01D00E4616E046F440760232F3
:103438000D9211E046F08001531C0D935378682BD0
:1034480001D00E4608E046F0C00602320D9203E0B5
:1034580046F4807601320D920D9B1878672856D86D
:103468002528C0F06882A0F12503422B00F2638270
:10347800DFE813F056026102610261026102610233
:10348800610261026102610261026102610261021C
:10349800610261026102610261026102610261020C
:1034A80061026102610261026102610261026102FC
:1034B800610261028601680186016102610261029E
:1034C80061026102610261026102610261026102DC
:1034D80061026102610261026102710061026102BE
:1034E80061026102610261026102610261027100AE
:1034F800AB01710086016801860146F4007601324D
:103508000D92A9E746F4807601320D92A4E7782857
:1035180000F211826928C0F00E82A0F16902D2B2CD
:103528000123934049F24102134214D113F0800F52
:1035380040F0DB8113F4806F00F0FD81189B1A1DA9
:103548001892D3F800A00A9B002B40F08C814FF012
:10355800FF32534670E16F283DD005D858283CD03B
:10356800622803D1022304E0782838D026F0100618
:103578000A23582835D0692803D0642801D026F0BA
:103588000C0616F4806F01D026F0010669282BD0AE
:10359800642829D016F4007F40F0968016F4807FC6
:1035A80040F0AE8016F0400F00F0BF80189A111D51
:1035B8001891127805960B9904910A990391029330
:1035C8000023019300923B462A4649464046FFF7AE
:1035D80004FA054629E00823CBE71023C9E710239E
:1035E800C7E746F02006C6E716F4007F21D116F497
:1035F800807F42D116F0400F58D0189A111D1891AB
:10360800127882EAE271A1EBE27105960B980490B8
:103618000A9803900293D20F019200913B462A46E2
:1036280049464046FFF7D9F905460D9B01330D93EE
:103638004BE6189A073222F0070202F108011891A6
:10364800516812680846002913DB08960B9C0794FA
:103658000A9C0694049300230593C90F02910092D3
:1036680001903B462A4649464046FFF700FA054680
:10367800DBE7524261EB4100E7E7189A111D189108
:10368800126882EAE271A1EBE27105960B98049048
:103698000A9803900293D20F019200913B462A4662
:1036A80049464046FFF799F90546BEE716F0800FF0
:1036B80005D0189A111D1891B2F90020A1E7189A9F
:1036C800111D189112689CE7189A073222F0070218
:1036D80002F10801189108960B9907910A99069129
:1036E8000021049305910291D2E90023CDE900233A
:1036F8003B462A4649464046FFF7B9F9054694E74E
:10370800189A111D189105960B9904910A9903911D
:10371800029300230193136800933B462A464946C7
:103728004046FFF75AF905467FE716F0800F04D0A8
:10373800189A111D189112883CE7189A111D1891B2
:10374800126837E7462818D0189B073323F0070379
:1037580003F10802189293ED000B02960B9B01935C
:103768000A9B00933B462A4649464046FFF7D8FB4A
:1037780005460D9B01330D93A7E546F02006E3E7C8
:10378800672801D0472801D146F40066452801D0B2
:10379800472801D146F02006189B073323F007037A
:1037A80003F10802189293ED000B02960B9B01930C
:1037B8000A9B00933B462A4649464046FFF7B8F91C
:1037C80005460D9B01330D937FE516F002061CD0CC
:1037D80001241898031D189305F1010A3B462A464F
:1037E80049460078C047AEB90D9B01330D93554645
:1037F8006BE5551C3B4649462020C04723462A46D0
:103808005C1C9A45F5D81546E3E70123DDF82CA0A2
:103818002A46F5E75246DDF82CA006E0561C3B4642
:1038280049462020C0472C463246651CA245F5D89B
:103838009246D9E701330A46197811B1511E002A78
:10384800F8D1A3EB0A0316F4806B03D00A9A9342CB
:1038580028BF134616F0020407D00C940A9E2A4685
:103868005D469B4623E00A9A73E6CDF830B02A46B7
:1038780025460B9C07E002F1010B3B4649462020F8
:10388800C04733465A465E1C9C42F4D8DDF830B037
:103898002C4633460C940A9E5D469B4607E01E461E
:1038A8000AF1010A541C3B464946C04722469AF889
:1038B800000020B1002DF3D0731E002EEFD10C9C18
:1038C80015465B461CB90D9B01330D93FDE40B9E19
:1038D80006E0551C3B4649462020C04723462A4659
:1038E8005C1C9E42F5D81546EDE746F02106189B6C
:1038F8001A1D18921B680596082204920A9A0392C8
:10390800102202920022019200933B462A46494621
:103918004046FFF762F805460D9B01330D93D4E44A
:103928006C1C3B462A4649462520C0470D9B01335F
:103938000D932546C9E46C1C3B462A464946C047B8
:103948000D9B01330D932546BFE4DFF82080B1E4D9
:10395800BD4208D37A1E3B4649460020C047284648
:103968000FB0BDE8F08F2A46F5E700BF0928000828
:103978000EB400B584B0014605AA52F8043B039280
:1039880000924FF0FF320448FFF78AFC04B05DF85C
:1039980004EB03B0704700BF01280008DFF834D0FB
:1039A800FEF720FF0C480D490D4A002302E0D458C9
:1039B800C4500433C4188C42F9D30A4A0A4C002371
:1039C80001E013600432A242FBD300F019F8FDF7BE
:1039D80083FB704700000220000000201000002038
:1039E800344700081000002098010020FEE7024438
:1039F8000346934200D1704703F8011BF9E7000022
:103A080070B50D4B0D4D5B1B9C100026A64209D1CD
:103A180000F026FA0A4D0B4B5B1B9C100026A642B1
:103A280005D170BD55F8043B98470136EEE755F8C7
:103A3800043B98470136F2E72C4700082C4700085A
:103A48002C47000830470008DFED1F7A20EE270AD0
:103A5800B5EEC00AF1EE10FAFDEEC07A04D517EE05
:103A6800903A013B07EE903AF8EEE77A9FED177A25
:103A780030EE670A20EE070AFCEEC07A17EE903A9D
:103A88009BB2B3F5007F1AD207EE903AF8EE677A48
:103A9800591C30EE670A0E4AF7EE007A02EB8303F0
:103AA80002EB810293ED007AD2ED006A77EEC07ADC
:103AB80020EE260A67EE877A37EE800A704730EEE6
:103AC800470A01210023E6E783F9223E000000446B
:103AD800203F0008DFED217A20EE270AF5EE007A74
:103AE80030EE270AB5EEC00AF1EE10FAFDEEC07A04
:103AF80004D517EE903A013B07EE903AF8EEE77AD4
:103B08009FED177A30EE670A20EE070AFCEEC07ABE
:103B180017EE903A9BB2B3F5007F1AD207EE903AAF
:103B2800F8EE677A591C30EE670A0E4AF7EE007A0B
:103B380002EB830302EB810293ED007AD2ED006A77
:103B480077EEC07A20EE260A67EE877A37EE800A8B
:103B5800704730EE470A01210023E6E783F9223E49
:103B680000000044203F00082DE9F047089D0F465B
:103B780004468C46002B48D18A42164661D9B2FACF
:103B880082F34BB1C3F1200201FA03FC20FA02F2DE
:103B98009E4042EA0C0C9C404FEA164EB7B2BCFB62
:103BA800FEF1220C0EFB11CC42EA0C4201FB07F09D
:103BB800904209D9B21801F1FF3C80F0EE809042A2
:103BC80040F2EB8002393244121AA4B2B2FBFEF082
:103BD8000EFB102244EA024400FB07F7A74209D96A
:103BE800341900F1FF3280F0DA80A74240F2D78022
:103BF8003444023840EA0140E41B00211DB1DC4096
:103C08000023C5E90043BDE8F0878B4206D90DB112
:103C1800C5E9000100210846BDE8F087B3FA83F141
:103C2800002948D1BB4202D3824200F20781841A9C
:103C380067EB030201209446002DE4D0C5E9004C4F
:103C4800E1E7002A00F09280B2FA82F3002B40F0FC
:103C5800A8808A1A4FEA164E1FFA86FC0121200C0A
:103C6800B2FBFEF70EFB172240EA02420CFB07F0FC
:103C7800904207D9B21807F1FF3802D2904200F2F9
:103C8800E2804746121AA4B2B2FBFEF00EFB1022E5
:103C980044EA02440CFB00FCA44507D9341900F19E
:103CA800FF3202D2A44500F2CB801046A4EB0C04EC
:103CB80040EA0740A2E7C1F120068B4022FA06FC41
:103CC8004CEA030C07FA01F420FA06F3F7404FEA2E
:103CD8001C49234300FA01F81FFA8CFEB7FBF9F0E0
:103CE8001C0C09FB107744EA074400FB0EF7A742B7
:103CF80002FA01F20AD91CEB040400F1FF3A80F041
:103D08009B80A74240F2988002386444E41B9FB22B
:103D1800B4FBF9F309FB134447EA044403FB0EFE22
:103D2800A64509D91CEB040403F1FF3780F0828013
:103D3800A6457FD9023B644443EA0040A4EB0E0445
:103D4800A0FB02E7BC427346B94663D360D05DB1BD
:103D5800B8EB030264EB090404FA06F622FA01F34D
:103D68001E43CC40C5E9006400214CE762084808BE
:103D780042EAC1710B0C43EA00438AB242EA0342A9
:103D8800B3FBF6F1E407B4463746B6461F23B0FB4B
:103D9800F6F0D21B41EA004161E7614614E710469C
:103DA80028E7C3F1200120FA01F29E4027FA01F129
:103DB8009F403A434FEA164E1FFA86FCB1FBFEF7C6
:103DC8000EFB1710110C41EA004107FB0CF888455F
:103DD80004FA03F43AD9711807F1FF3001D2884583
:103DE8001FD8A1EB0801B1FBFEF808FB0CF70EFB8E
:103DF800181192B242EA0142BA422FD2B21808F11F
:103E0800FF31C6D2BA42C4D2A8F102013244C0E797
:103E1800F0459CD2BEEB020367EB0C070138B946AC
:103E280095E7A6EB08084144B81EB1FBFEF808FB6D
:103E38000CF7DCE73B467FE7504667E70846FBE6BA
:103E48003444023832E7023F32441BE7A1EB080151
:103E58003846B1FBFEF808FB0CF7C8E7414698E77F
:103E6800F8B500BFF8BC08BC9E467047F8B500BF5F
:083E7800F8BC08BC9E4670472F
:103E80004E31204F206425640A0000005325302E57
:103E900036662025302E36660A000000666E692BD5
:103EA00000000000666E69006E616E00666E692D2E
:103EB00000000000000000000102030400000000F8
:103EC00000000000010203040607080900000000CA
:103ED000000000000000F03F00000000000024404F
:103EE00000000000000059400000000000408F402A
:103EF000000000000088C34000000000006AF84095
:103F00000000000080842E4100000000D0126341B8
:103F10000000000084D797410000000065CDCD412E
:103F200000000000920E493CB10AC93C2BC3163D6B
:103F30002EFB483D752B7B3D04A9963D80B6AF3DD9
:103F400036BDC83D2FBCE13D73B2FA3D87CF093E77
:103F50008340163EB5AB223EA2102F3ECF6E3B3EB5
:103F6000C2C5473E0115543E135C603E7F9A6C3ECD
:103F7000CCCF783EC07D823E938E883E229A8E3E84
:103F800032A0943E86A09A3EE59AA03E128FA63EAD
:103F9000D47CAC3EEF63B23E2A44B83E491DBE3EDF
:103FA00015EFC33E53B9C93ECA7BCF3E4136D53E1D
:103FB00080E8DA3E4F92E03E7533E63EBBCBEB3E07
:103FC000EA5AF13ECBE0F63E275DFC3EE4E7003FD7
:103FD0003D9C033F824B063F9BF5083F6B9A0B3F8E
:103FE000DA390E3FCDD3103F2A68133FD9F6153F7B
:103FF000C07F183FC6021B3FD17F1D3FCBF61F3F3E
:104000009967223F25D2243F5636273F1594293FF2
:104010004AEB2B3FDE3B2E3FBB85303FC9C8323FCA
:10402000F304353F233A373F4268393F3B8F3B3FEC
:10403000F9AE3D3F67C73F3F70D8413F01E2433F84
:1040400003E4453F65DE473F12D1493FF8BB4B3F94
:10405000029F4D3F207A4F3F3D4D513F4918533FFE
:1040600031DB543FE595563F5348583F6AF2593F7C
:104070001A945B3F532D5D3F05BE5E3F2146603F76
:1040800097C5613F5A3C633F59AA643F880F663F1A
:10409000D86B673F3CBF683FA7096A3F0C4B6B3F3B
:1040A0005E836C3F93B26D3F9ED86E3F73F56F3F5A
:1040B0000809713F5213723F4714733FDD0B743F81
:1040C0000BFA743FC6DE753F07BA763FC58B773F64
:1040D000F853783F9812793F9DC7793F02737A3F32
:1040E000BE147B3FCDAC7B3F283B7C3FC9BF7C3FB0
:1040F000AC3A7D3FCCAB7D3F23137E3FB0707E3F1B
:104100006DC47E3F580E7F3F6D4E7F3FAB847F3F37
:104110000FB17F3F97D37F3F43EC7F3F11FB7F3F42
:104120000000803F11FB7F3F43EC7F3F97D37F3FF1
:104130000FB17F3FAB847F3F6D4E7F3F580E7F3F77
:104140006DC47E3FB0707E3F23137E3FCCAB7D3F7E
:10415000AC3A7D3FC9BF7C3F283B7C3FCDAC7B3F29
:10416000BE147B3F02737A3F9DC7793F9812793F17
:10417000F853783FC58B773F07BA763FC6DE753F69
:104180000BFA743FDD0B743F4714733F5213723FB9
:104190000809713F73F56F3F9ED86E3F93B26D3F34
:1041A0005E836C3F0C4B6B3FA7096A3F3CBF683F87
:1041B000D86B673F880F663F59AA643F5A3C633FFC
:1041C00097C5613F2146603F05BE5E3F532D5D3F71
:1041D0001A945B3F6AF2593F5348583FE595563F62
:1041E00031DB543F4918533F3D4D513F207A4F3FFB
:1041F000029F4D3FF8BB4B3F12D1493F65DE473F21
:1042000003E4453F01E2433F70D8413F67C73F3F6A
:10421000F9AE3D3F3B8F3B3F4268393F233A373F42
:10422000F304353FC9C8323FBB85303FDE3B2E3FEC
:104230004AEB2B3F1594293F5636273F25D2243F82
:104240009967223FCBF61F3FD17F1D3FC6021B3F20
:10425000C07F183FD9F6153F2A68133FCDD3103FD2
:10426000DA390E3F6B9A0B3F9BF5083F824B063FB6
:104270003D9C033FE4E7003F275DFC3ECBE0F63E7C
:10428000EA5AF13EBBCBEB3E7533E63E4F92E03E41
:1042900080E8DA3E4136D53ECA7BCF3E53B9C93EAF
:1042A00015EFC33E491DBE3E2A44B83EEF63B23E01
:1042B000D47CAC3E128FA63EE59AA03E86A09A3EE4
:1042C00032A0943E229A8E3E938E883EC07D823EDE
:1042D000CCCF783E7F9A6C3E135C603E0115543E15
:1042E000C2C5473ECF6E3B3EA2102F3EB5AB223E2D
:1042F0008340163E87CF093E73B2FA3D2FBCE13DA5
:1043000036BDC83D80B6AF3D04A9963D752B7B3DBB
:104310002EFB483D2BC3163DB10AC93C920E493CC9
:1043200000000000920E49BCB10AC9BC2BC316BDE7
:104330002EFB48BD752B7BBD04A996BD80B6AFBDD5
:1043400036BDC8BD2FBCE1BD73B2FABD87CF09BE73
:10435000834016BEB5AB22BEA2102FBECF6E3BBEB1
:10436000C2C547BE011554BE135C60BE7F9A6CBEC9
:10437000CCCF78BEC07D82BE938E88BE229A8EBE80
:1043800032A094BE86A09ABEE59AA0BE128FA6BEA9
:10439000D47CACBEEF63B2BE2A44B8BE491DBEBEDB
:1043A00015EFC3BE53B9C9BECA7BCFBE4136D5BE19
:1043B00080E8DABE4F92E0BE7533E6BEBBCBEBBE03
:1043C000EA5AF1BECBE0F6BE275DFCBEE4E700BFD3
:1043D0003D9C03BF824B06BF9BF508BF6B9A0BBF8A
:1043E000DA390EBFCDD310BF2A6813BFD9F615BF77
:1043F000C07F18BFC6021BBFD17F1DBFCBF61FBF3A
:10440000996722BF25D224BF563627BF159429BFEE
:104410004AEB2BBFDE3B2EBFBB8530BFC9C832BFC6
:10442000F30435BF233A37BF426839BF3B8F3BBFE8
:10443000F9AE3DBF67C73FBF70D841BF01E243BF80
:1044400003E445BF65DE47BF12D149BFF8BB4BBF90
:10445000029F4DBF207A4FBF3D4D51BF491853BFFA
:1044600031DB54BFE59556BF534858BF6AF259BF78
:104470001A945BBF532D5DBF05BE5EBF214660BF72
:1044800097C561BF5A3C63BF59AA64BF880F66BF16
:10449000D86B67BF3CBF68BFA7096ABF0C4B6BBF37
:1044A0005E836CBF93B26DBF9ED86EBF73F56FBF56
:1044B000080971BF521372BF471473BFDD0B74BF7D
:1044C0000BFA74BFC6DE75BF07BA76BFC58B77BF60
:1044D000F85378BF981279BF9DC779BF02737ABF2E
:1044E000BE147BBFCDAC7BBF283B7CBFC9BF7CBFAC
:1044F000AC3A7DBFCCAB7DBF23137EBFB0707EBF17
:104500006DC47EBF580E7FBF6D4E7FBFAB847FBF33
:104510000FB17FBF97D37FBF43EC7FBF11FB7FBF3E
:10452000000080BF11FB7FBF43EC7FBF97D37FBFED
:104530000FB17FBFAB847FBF6D4E7FBF580E7FBF73
:104540006DC47EBFB0707EBF23137EBFCCAB7DBF7A
:10455000AC3A7DBFC9BF7CBF283B7CBFCDAC7BBF25
:10456000BE147BBF02737ABF9DC779BF981279BF13
:10457000F85378BFC58B77BF07BA76BFC6DE75BF65
:104580000BFA74BFDD0B74BF471473BF521372BFB5
:10459000080971BF73F56FBF9ED86EBF93B26DBF30
:1045A0005E836CBF0C4B6BBFA7096ABF3CBF68BF83
:1045B000D86B67BF880F66BF59AA64BF5A3C63BFF8
:1045C00097C561BF214660BF05BE5EBF532D5DBF6D
:1045D0001A945BBF6AF259BF534858BFE59556BF5E
:1045E00031DB54BF491853BF3D4D51BF207A4FBFF7
:1045F000029F4DBFF8BB4BBF12D149BF65DE47BF1D
:1046000003E445BF01E243BF70D841BF67C73FBF66
:10461000F9AE3DBF3B8F3BBF426839BF233A37BF3E
:10462000F30435BFC9C832BFBB8530BFDE3B2EBFE8
:104630004AEB2BBF159429BF563627BF25D224BF7E
:10464000996722BFCBF61FBFD17F1DBFC6021BBF1C
:10465000C07F18BFD9F615BF2A6813BFCDD310BFCE
:10466000DA390EBF6B9A0BBF9BF508BF824B06BFB2
:104670003D9C03BFE4E700BF275DFCBECBE0F6BE78
:10468000EA5AF1BEBBCBEBBE7533E6BE4F92E0BE3D
:1046900080E8DABE4136D5BECA7BCFBE53B9C9BEAB
:1046A00015EFC3BE491DBEBE2A44B8BEEF63B2BEFD
:1046B000D47CACBE128FA6BEE59AA0BE86A09ABEE0
:1046C00032A094BE229A8EBE938E88BEC07D82BEDA
:1046D000CCCF78BE7F9A6CBE135C60BE011554BE11
:1046E000C2C547BECF6E3BBEA2102FBEB5AB22BE29
:1046F000834016BE87CF09BE73B2FABD2FBCE1BDA1
:1047000036BDC8BD80B6AFBD04A996BD752B7BBDB7
:104710002EFB48BD2BC316BDB10AC9BC920E49BCC5
:044720000000008015
:0847240064BAFF7F01000000F0
:04472C00110C000864
:04473000E90B000889
:104734000AD7233C01000000100000000024F4000C
:04000005080039A511
:00000001FF
